{
  "contractName": "BerezkaWithdraw",
  "abi": [
    {
      "inputs": [],
      "payable": false,
      "stateMutability": "nonpayable",
      "type": "constructor"
    },
    {
      "anonymous": false,
      "inputs": [
        {
          "indexed": true,
          "internalType": "address",
          "name": "previousOwner",
          "type": "address"
        },
        {
          "indexed": true,
          "internalType": "address",
          "name": "newOwner",
          "type": "address"
        }
      ],
      "name": "OwnershipTransferred",
      "type": "event"
    },
    {
      "anonymous": false,
      "inputs": [
        {
          "indexed": false,
          "internalType": "uint256",
          "name": "_amountToWithdraw",
          "type": "uint256"
        },
        {
          "indexed": false,
          "internalType": "address",
          "name": "_tokenToWithraw",
          "type": "address"
        },
        {
          "indexed": false,
          "internalType": "address",
          "name": "_withdrawTo",
          "type": "address"
        },
        {
          "indexed": false,
          "internalType": "bytes32",
          "name": "_queryId",
          "type": "bytes32"
        }
      ],
      "name": "WithdrawRequestCreated",
      "type": "event"
    },
    {
      "anonymous": false,
      "inputs": [
        {
          "indexed": false,
          "internalType": "bytes32",
          "name": "_queryId",
          "type": "bytes32"
        }
      ],
      "name": "WithdrawRequestFailed",
      "type": "event"
    },
    {
      "anonymous": false,
      "inputs": [
        {
          "indexed": false,
          "internalType": "uint256",
          "name": "_finalPrice",
          "type": "uint256"
        },
        {
          "indexed": false,
          "internalType": "bytes32",
          "name": "_queryId",
          "type": "bytes32"
        }
      ],
      "name": "WithdrawRequestSucceeded",
      "type": "event"
    },
    {
      "constant": true,
      "inputs": [
        {
          "internalType": "address",
          "name": "",
          "type": "address"
        }
      ],
      "name": "daoConfig",
      "outputs": [
        {
          "internalType": "address",
          "name": "agent",
          "type": "address"
        },
        {
          "internalType": "address",
          "name": "tokens",
          "type": "address"
        }
      ],
      "payable": false,
      "stateMutability": "view",
      "type": "function"
    },
    {
      "constant": true,
      "inputs": [],
      "name": "lastExchangePrice",
      "outputs": [
        {
          "internalType": "uint256",
          "name": "",
          "type": "uint256"
        }
      ],
      "payable": false,
      "stateMutability": "view",
      "type": "function"
    },
    {
      "constant": true,
      "inputs": [],
      "name": "oracleAddress",
      "outputs": [
        {
          "internalType": "string",
          "name": "",
          "type": "string"
        }
      ],
      "payable": false,
      "stateMutability": "view",
      "type": "function"
    },
    {
      "constant": true,
      "inputs": [],
      "name": "oracleCallbackGas",
      "outputs": [
        {
          "internalType": "uint256",
          "name": "",
          "type": "uint256"
        }
      ],
      "payable": false,
      "stateMutability": "view",
      "type": "function"
    },
    {
      "constant": true,
      "inputs": [],
      "name": "owner",
      "outputs": [
        {
          "internalType": "address",
          "name": "",
          "type": "address"
        }
      ],
      "payable": false,
      "stateMutability": "view",
      "type": "function"
    },
    {
      "constant": true,
      "inputs": [
        {
          "internalType": "address",
          "name": "",
          "type": "address"
        }
      ],
      "name": "pendingQueries",
      "outputs": [
        {
          "internalType": "bytes32",
          "name": "",
          "type": "bytes32"
        }
      ],
      "payable": false,
      "stateMutability": "view",
      "type": "function"
    },
    {
      "constant": true,
      "inputs": [
        {
          "internalType": "bytes32",
          "name": "",
          "type": "bytes32"
        }
      ],
      "name": "pendingRequests",
      "outputs": [
        {
          "internalType": "bytes32",
          "name": "requestId",
          "type": "bytes32"
        },
        {
          "internalType": "address",
          "name": "sender",
          "type": "address"
        },
        {
          "internalType": "uint256",
          "name": "amount",
          "type": "uint256"
        },
        {
          "internalType": "address",
          "name": "token",
          "type": "address"
        },
        {
          "internalType": "address",
          "name": "targetToken",
          "type": "address"
        },
        {
          "internalType": "uint256",
          "name": "lastValidBlock",
          "type": "uint256"
        }
      ],
      "payable": false,
      "stateMutability": "view",
      "type": "function"
    },
    {
      "constant": false,
      "inputs": [],
      "name": "renounceOwnership",
      "outputs": [],
      "payable": false,
      "stateMutability": "nonpayable",
      "type": "function"
    },
    {
      "constant": true,
      "inputs": [],
      "name": "requestValidityDurationBlocks",
      "outputs": [
        {
          "internalType": "uint256",
          "name": "",
          "type": "uint256"
        }
      ],
      "payable": false,
      "stateMutability": "view",
      "type": "function"
    },
    {
      "constant": false,
      "inputs": [
        {
          "internalType": "address",
          "name": "newOwner",
          "type": "address"
        }
      ],
      "name": "transferOwnership",
      "outputs": [],
      "payable": false,
      "stateMutability": "nonpayable",
      "type": "function"
    },
    {
      "constant": true,
      "inputs": [
        {
          "internalType": "address",
          "name": "",
          "type": "address"
        }
      ],
      "name": "whitelist",
      "outputs": [
        {
          "internalType": "bool",
          "name": "",
          "type": "bool"
        }
      ],
      "payable": false,
      "stateMutability": "view",
      "type": "function"
    },
    {
      "constant": false,
      "inputs": [
        {
          "internalType": "uint256",
          "name": "_amount",
          "type": "uint256"
        },
        {
          "internalType": "address",
          "name": "_token",
          "type": "address"
        },
        {
          "internalType": "address",
          "name": "_targetToken",
          "type": "address"
        },
        {
          "internalType": "uint256",
          "name": "_optimisticPrice",
          "type": "uint256"
        }
      ],
      "name": "withdraw",
      "outputs": [],
      "payable": true,
      "stateMutability": "payable",
      "type": "function"
    },
    {
      "constant": false,
      "inputs": [
        {
          "internalType": "bytes32",
          "name": "_queryID",
          "type": "bytes32"
        },
        {
          "internalType": "string",
          "name": "_result",
          "type": "string"
        }
      ],
      "name": "__callback",
      "outputs": [],
      "payable": false,
      "stateMutability": "nonpayable",
      "type": "function"
    },
    {
      "constant": false,
      "inputs": [
        {
          "internalType": "bytes32",
          "name": "_myid",
          "type": "bytes32"
        },
        {
          "internalType": "string",
          "name": "_result",
          "type": "string"
        },
        {
          "internalType": "bytes",
          "name": "_proof",
          "type": "bytes"
        }
      ],
      "name": "__callback",
      "outputs": [],
      "payable": false,
      "stateMutability": "nonpayable",
      "type": "function"
    },
    {
      "constant": true,
      "inputs": [
        {
          "internalType": "uint256",
          "name": "_amount",
          "type": "uint256"
        },
        {
          "internalType": "uint256",
          "name": "_price",
          "type": "uint256"
        },
        {
          "internalType": "address",
          "name": "_targetToken",
          "type": "address"
        }
      ],
      "name": "computeExchange",
      "outputs": [
        {
          "internalType": "uint256",
          "name": "",
          "type": "uint256"
        }
      ],
      "payable": false,
      "stateMutability": "view",
      "type": "function"
    },
    {
      "constant": false,
      "inputs": [
        {
          "internalType": "address",
          "name": "_token",
          "type": "address"
        },
        {
          "internalType": "address",
          "name": "_tokens",
          "type": "address"
        },
        {
          "internalType": "address",
          "name": "_agent",
          "type": "address"
        }
      ],
      "name": "addDao",
      "outputs": [],
      "payable": false,
      "stateMutability": "nonpayable",
      "type": "function"
    },
    {
      "constant": false,
      "inputs": [
        {
          "internalType": "address",
          "name": "_token",
          "type": "address"
        }
      ],
      "name": "deleteDao",
      "outputs": [],
      "payable": false,
      "stateMutability": "nonpayable",
      "type": "function"
    },
    {
      "constant": false,
      "inputs": [
        {
          "internalType": "string",
          "name": "_oracleAddres",
          "type": "string"
        }
      ],
      "name": "setOracleAddress",
      "outputs": [],
      "payable": false,
      "stateMutability": "nonpayable",
      "type": "function"
    },
    {
      "constant": false,
      "inputs": [
        {
          "internalType": "uint256",
          "name": "_oracleCallbackGas",
          "type": "uint256"
        }
      ],
      "name": "setOracleGas",
      "outputs": [],
      "payable": false,
      "stateMutability": "nonpayable",
      "type": "function"
    },
    {
      "constant": false,
      "inputs": [
        {
          "internalType": "uint256",
          "name": "_duration",
          "type": "uint256"
        }
      ],
      "name": "setRequestDuration",
      "outputs": [],
      "payable": false,
      "stateMutability": "nonpayable",
      "type": "function"
    },
    {
      "constant": false,
      "inputs": [
        {
          "internalType": "address[]",
          "name": "_whitelisted",
          "type": "address[]"
        }
      ],
      "name": "addWhitelistTokens",
      "outputs": [],
      "payable": false,
      "stateMutability": "nonpayable",
      "type": "function"
    },
    {
      "constant": false,
      "inputs": [
        {
          "internalType": "address[]",
          "name": "_whitelisted",
          "type": "address[]"
        }
      ],
      "name": "removeWhitelistTokens",
      "outputs": [],
      "payable": false,
      "stateMutability": "nonpayable",
      "type": "function"
    },
    {
      "constant": false,
      "inputs": [
        {
          "internalType": "bytes32",
          "name": "_queryId",
          "type": "bytes32"
        }
      ],
      "name": "cancel",
      "outputs": [],
      "payable": false,
      "stateMutability": "nonpayable",
      "type": "function"
    },
    {
      "constant": false,
      "inputs": [],
      "name": "cancel",
      "outputs": [],
      "payable": false,
      "stateMutability": "nonpayable",
      "type": "function"
    }
  ],
  "bytecode": "0x60806040526040518060600160405280602e815260200162005809602e9139600b90805190602001906200003592919062000110565b50620493e0600c55610168600d553480156200005057600080fd5b506000620000636200010860201b60201c565b905080600560006101000a81548173ffffffffffffffffffffffffffffffffffffffff021916908373ffffffffffffffffffffffffffffffffffffffff1602179055508073ffffffffffffffffffffffffffffffffffffffff16600073ffffffffffffffffffffffffffffffffffffffff167f8be0079c531659141344cd1fd0a4f28419497f9722a3daafe3b4186f6b6457e060405160405180910390a350620001bf565b600033905090565b828054600181600116156101000203166002900490600052602060002090601f016020900481019282601f106200015357805160ff191683800117855562000184565b8280016001018555821562000184579182015b828111156200018357825182559160200191906001019062000166565b5b50905062000193919062000197565b5090565b620001bc91905b80821115620001b85760008160009055506001016200019e565b5090565b90565b61563a80620001cf6000396000f3fe60806040526004361061014b5760003560e01c8063b25706f3116100b6578063dc7966841161006f578063dc79668414610a79578063e3113df914610ab4578063ea8a1af014610b79578063ede374f014610b90578063f2fde38b14610bbb578063fafc02b414610c0c5761014b565b8063b25706f31461086f578063b89f34bf14610934578063beea0c581461095f578063c0587a95146109d8578063c4d252f514610a03578063c7e22ac414610a3e5761014b565b8063715018a611610108578063715018a61461062b5780637fc4077e146106425780638da5cb5b146106a75780639b19251a146106fe578063a318c1a414610767578063a89ae4ba146107df5761014b565b80631d6fbb7d146101505780631f154b32146101a15780632795ad201461026957806327dc297e1461035f57806338bbfa501461043157806343095dbc1461059a575b600080fd5b34801561015c57600080fd5b5061019f6004803603602081101561017357600080fd5b81019080803573ffffffffffffffffffffffffffffffffffffffff169060200190929190505050610cd0565b005b3480156101ad57600080fd5b50610267600480360360208110156101c457600080fd5b81019080803590602001906401000000008111156101e157600080fd5b8201836020820111156101f357600080fd5b8035906020019184600183028401116401000000008311171561021557600080fd5b91908080601f016020809104026020016040519081016040528093929190818152602001838380828437600081840152601f19601f820116905080830192505050505050509192919290505050610eb5565b005b34801561027557600080fd5b506102a26004803603602081101561028c57600080fd5b8101908080359060200190929190505050610f7e565b604051808781526020018673ffffffffffffffffffffffffffffffffffffffff1673ffffffffffffffffffffffffffffffffffffffff1681526020018581526020018473ffffffffffffffffffffffffffffffffffffffff1673ffffffffffffffffffffffffffffffffffffffff1681526020018373ffffffffffffffffffffffffffffffffffffffff1673ffffffffffffffffffffffffffffffffffffffff168152602001828152602001965050505050505060405180910390f35b34801561036b57600080fd5b5061042f6004803603604081101561038257600080fd5b8101908080359060200190929190803590602001906401000000008111156103a957600080fd5b8201836020820111156103bb57600080fd5b803590602001918460018302840111640100000000831117156103dd57600080fd5b91908080601f016020809104026020016040519081016040528093929190818152602001838380828437600081840152601f19601f82011690508083019250505050505050919291929050505061101a565b005b34801561043d57600080fd5b506105986004803603606081101561045457600080fd5b81019080803590602001909291908035906020019064010000000081111561047b57600080fd5b82018360208201111561048d57600080fd5b803590602001918460018302840111640100000000831117156104af57600080fd5b91908080601f016020809104026020016040519081016040528093929190818152602001838380828437600081840152601f19601f8201169050808301925050505050505091929192908035906020019064010000000081111561051257600080fd5b82018360208201111561052457600080fd5b8035906020019184600183028401116401000000008311171561054657600080fd5b91908080601f016020809104026020016040519081016040528093929190818152602001838380828437600081840152601f19601f82011690508083019250505050505050919291929050505061181a565b005b3480156105a657600080fd5b50610629600480360360608110156105bd57600080fd5b81019080803573ffffffffffffffffffffffffffffffffffffffff169060200190929190803573ffffffffffffffffffffffffffffffffffffffff169060200190929190803573ffffffffffffffffffffffffffffffffffffffff16906020019092919050505061183d565b005b34801561063757600080fd5b50610640611beb565b005b34801561064e57600080fd5b506106916004803603602081101561066557600080fd5b81019080803573ffffffffffffffffffffffffffffffffffffffff169060200190929190505050611d5b565b6040518082815260200191505060405180910390f35b3480156106b357600080fd5b506106bc611d73565b604051808273ffffffffffffffffffffffffffffffffffffffff1673ffffffffffffffffffffffffffffffffffffffff16815260200191505060405180910390f35b34801561070a57600080fd5b5061074d6004803603602081101561072157600080fd5b81019080803573ffffffffffffffffffffffffffffffffffffffff169060200190929190505050611d9d565b604051808215151515815260200191505060405180910390f35b6107dd6004803603608081101561077d57600080fd5b8101908080359060200190929190803573ffffffffffffffffffffffffffffffffffffffff169060200190929190803573ffffffffffffffffffffffffffffffffffffffff16906020019092919080359060200190929190505050611dbd565b005b3480156107eb57600080fd5b506107f4612735565b6040518080602001828103825283818151815260200191508051906020019080838360005b83811015610834578082015181840152602081019050610819565b50505050905090810190601f1680156108615780820380516001836020036101000a031916815260200191505b509250505060405180910390f35b34801561087b57600080fd5b506109326004803603602081101561089257600080fd5b81019080803590602001906401000000008111156108af57600080fd5b8201836020820111156108c157600080fd5b803590602001918460208302840111640100000000831117156108e357600080fd5b919080806020026020016040519081016040528093929190818152602001838360200280828437600081840152601f19601f8201169050808301925050505050505091929192905050506127d3565b005b34801561094057600080fd5b5061094961290d565b6040518082815260200191505060405180910390f35b34801561096b57600080fd5b506109c26004803603606081101561098257600080fd5b810190808035906020019092919080359060200190929190803573ffffffffffffffffffffffffffffffffffffffff169060200190929190505050612913565b6040518082815260200191505060405180910390f35b3480156109e457600080fd5b506109ed6129bf565b6040518082815260200191505060405180910390f35b348015610a0f57600080fd5b50610a3c60048036036020811015610a2657600080fd5b81019080803590602001909291905050506129c5565b005b348015610a4a57600080fd5b50610a7760048036036020811015610a6157600080fd5b8101908080359060200190929190505050612a80565b005b348015610a8557600080fd5b50610ab260048036036020811015610a9c57600080fd5b8101908080359060200190929190505050612b39565b005b348015610ac057600080fd5b50610b7760048036036020811015610ad757600080fd5b8101908080359060200190640100000000811115610af457600080fd5b820183602082011115610b0657600080fd5b80359060200191846020830284011164010000000083111715610b2857600080fd5b919080806020026020016040519081016040528093929190818152602001838360200280828437600081840152601f19601f820116905080830192505050505050509192919290505050612bf2565b005b348015610b8557600080fd5b50610b8e612d2c565b005b348015610b9c57600080fd5b50610ba5612d76565b6040518082815260200191505060405180910390f35b348015610bc757600080fd5b50610c0a60048036036020811015610bde57600080fd5b81019080803573ffffffffffffffffffffffffffffffffffffffff169060200190929190505050612d7c565b005b348015610c1857600080fd5b50610c5b60048036036020811015610c2f57600080fd5b81019080803573ffffffffffffffffffffffffffffffffffffffff169060200190929190505050612f71565b604051808373ffffffffffffffffffffffffffffffffffffffff1673ffffffffffffffffffffffffffffffffffffffff1681526020018273ffffffffffffffffffffffffffffffffffffffff1673ffffffffffffffffffffffffffffffffffffffff1681526020019250505060405180910390f35b610cd8612fd5565b73ffffffffffffffffffffffffffffffffffffffff16610cf6611d73565b73ffffffffffffffffffffffffffffffffffffffff1614610d7f576040517f08c379a00000000000000000000000000000000000000000000000000000000081526004018080602001828103825260208152602001807f4f776e61626c653a2063616c6c6572206973206e6f7420746865206f776e657281525060200191505060405180910390fd5b600073ffffffffffffffffffffffffffffffffffffffff168173ffffffffffffffffffffffffffffffffffffffff161415610e22576040517f08c379a00000000000000000000000000000000000000000000000000000000081526004018080602001828103825260158152602001807f494e56414c49445f544f4b454e5f41444452455353000000000000000000000081525060200191505060405180910390fd5b600760008273ffffffffffffffffffffffffffffffffffffffff1673ffffffffffffffffffffffffffffffffffffffff168152602001908152602001600020600080820160006101000a81549073ffffffffffffffffffffffffffffffffffffffff02191690556001820160006101000a81549073ffffffffffffffffffffffffffffffffffffffff0219169055505050565b610ebd612fd5565b73ffffffffffffffffffffffffffffffffffffffff16610edb611d73565b73ffffffffffffffffffffffffffffffffffffffff1614610f64576040517f08c379a00000000000000000000000000000000000000000000000000000000081526004018080602001828103825260208152602001807f4f776e61626c653a2063616c6c6572206973206e6f7420746865206f776e657281525060200191505060405180910390fd5b80600b9080519060200190610f7a92919061545f565b5050565b60096020528060005260406000206000915090508060000154908060010160009054906101000a900473ffffffffffffffffffffffffffffffffffffffff16908060020154908060030160009054906101000a900473ffffffffffffffffffffffffffffffffffffffff16908060040160009054906101000a900473ffffffffffffffffffffffffffffffffffffffff16908060050154905086565b611022612fdd565b73ffffffffffffffffffffffffffffffffffffffff163373ffffffffffffffffffffffffffffffffffffffff16146110c2576040517f08c379a00000000000000000000000000000000000000000000000000000000081526004018080602001828103825260178152602001807f494e56414c49445f43414c4c4241434b5f53454e44455200000000000000000081525060200191505060405180910390fd5b6110cb816132fa565b600a819055506110d96154df565b600960008481526020019081526020016000206040518060c0016040529081600082015481526020016001820160009054906101000a900473ffffffffffffffffffffffffffffffffffffffff1673ffffffffffffffffffffffffffffffffffffffff1673ffffffffffffffffffffffffffffffffffffffff168152602001600282015481526020016003820160009054906101000a900473ffffffffffffffffffffffffffffffffffffffff1673ffffffffffffffffffffffffffffffffffffffff1673ffffffffffffffffffffffffffffffffffffffff1681526020016004820160009054906101000a900473ffffffffffffffffffffffffffffffffffffffff1673ffffffffffffffffffffffffffffffffffffffff1673ffffffffffffffffffffffffffffffffffffffff168152602001600582015481525050905082816000015114611292576040517f08c379a00000000000000000000000000000000000000000000000000000000081526004018080602001828103825260148152602001807f524551554553545f49535f43414e43454c4c454400000000000000000000000081525060200191505060405180910390fd5b438160a00151101561130c576040517f08c379a00000000000000000000000000000000000000000000000000000000081526004018080602001828103825260128152602001807f524551554553545f49535f45585049524544000000000000000000000000000081525060200191505060405180910390fd5b6000600a5411156116f357600061132e8260400151600a548460800151612913565b9050600060076000846060015173ffffffffffffffffffffffffffffffffffffffff1673ffffffffffffffffffffffffffffffffffffffff16815260200190815260200160002060000160009054906101000a900473ffffffffffffffffffffffffffffffffffffffff1690508073ffffffffffffffffffffffffffffffffffffffff1663beabacc884608001518560200151856040518463ffffffff1660e01b8152600401808473ffffffffffffffffffffffffffffffffffffffff1673ffffffffffffffffffffffffffffffffffffffff1681526020018373ffffffffffffffffffffffffffffffffffffffff1673ffffffffffffffffffffffffffffffffffffffff1681526020018281526020019350505050600060405180830381600087803b15801561145e57600080fd5b505af1158015611472573d6000803e3d6000fd5b5050505060008360600151905083604001518173ffffffffffffffffffffffffffffffffffffffff166370a0823186602001516040518263ffffffff1660e01b8152600401808273ffffffffffffffffffffffffffffffffffffffff1673ffffffffffffffffffffffffffffffffffffffff16815260200191505060206040518083038186803b15801561150557600080fd5b505afa158015611519573d6000803e3d6000fd5b505050506040513d602081101561152f57600080fd5b81019080805190602001909291905050501015611597576040517f08c379a00000000000000000000000000000000000000000000000000000000081526004018080602001828103825260248152602001806155e26024913960400191505060405180910390fd5b600060076000866060015173ffffffffffffffffffffffffffffffffffffffff1673ffffffffffffffffffffffffffffffffffffffff16815260200190815260200160002060010160009054906101000a900473ffffffffffffffffffffffffffffffffffffffff1690508073ffffffffffffffffffffffffffffffffffffffff16639dc29fac866020015187604001516040518363ffffffff1660e01b8152600401808373ffffffffffffffffffffffffffffffffffffffff1673ffffffffffffffffffffffffffffffffffffffff16815260200182815260200192505050600060405180830381600087803b15801561169157600080fd5b505af11580156116a5573d6000803e3d6000fd5b505050507fe3be18defe5d4518a04b527722e586e20a5497c4f9ba02b96b01c214c0c6af61600a5488604051808381526020018281526020019250505060405180910390a15050505061172b565b7fd723bb0a8811783fee4e7c2b97eecfbc49a0600b310afc7630b571281b51b59d836040518082815260200191505060405180910390a15b60086000826020015173ffffffffffffffffffffffffffffffffffffffff1673ffffffffffffffffffffffffffffffffffffffff16815260200190815260200160002060009055600960008481526020019081526020016000206000808201600090556001820160006101000a81549073ffffffffffffffffffffffffffffffffffffffff021916905560028201600090556003820160006101000a81549073ffffffffffffffffffffffffffffffffffffffff02191690556004820160006101000a81549073ffffffffffffffffffffffffffffffffffffffff021916905560058201600090555050505050565b6000801b600360008060001b815260200190815260200160002081905550505050565b611845612fd5565b73ffffffffffffffffffffffffffffffffffffffff16611863611d73565b73ffffffffffffffffffffffffffffffffffffffff16146118ec576040517f08c379a00000000000000000000000000000000000000000000000000000000081526004018080602001828103825260208152602001807f4f776e61626c653a2063616c6c6572206973206e6f7420746865206f776e657281525060200191505060405180910390fd5b600073ffffffffffffffffffffffffffffffffffffffff168373ffffffffffffffffffffffffffffffffffffffff16141561198f576040517f08c379a00000000000000000000000000000000000000000000000000000000081526004018080602001828103825260158152602001807f494e56414c49445f544f4b454e5f41444452455353000000000000000000000081525060200191505060405180910390fd5b600073ffffffffffffffffffffffffffffffffffffffff168173ffffffffffffffffffffffffffffffffffffffff161415611a32576040517f08c379a00000000000000000000000000000000000000000000000000000000081526004018080602001828103825260158152602001807f494e56414c49445f544f4b454e5f41444452455353000000000000000000000081525060200191505060405180910390fd5b600073ffffffffffffffffffffffffffffffffffffffff168273ffffffffffffffffffffffffffffffffffffffff161415611ad5576040517f08c379a00000000000000000000000000000000000000000000000000000000081526004018080602001828103825260168152602001807f494e56414c49445f544f4b454e535f414444524553530000000000000000000081525060200191505060405180910390fd5b60405180604001604052808273ffffffffffffffffffffffffffffffffffffffff1681526020018373ffffffffffffffffffffffffffffffffffffffff16815250600760008573ffffffffffffffffffffffffffffffffffffffff1673ffffffffffffffffffffffffffffffffffffffff16815260200190815260200160002060008201518160000160006101000a81548173ffffffffffffffffffffffffffffffffffffffff021916908373ffffffffffffffffffffffffffffffffffffffff16021790555060208201518160010160006101000a81548173ffffffffffffffffffffffffffffffffffffffff021916908373ffffffffffffffffffffffffffffffffffffffff160217905550905050505050565b611bf3612fd5565b73ffffffffffffffffffffffffffffffffffffffff16611c11611d73565b73ffffffffffffffffffffffffffffffffffffffff1614611c9a576040517f08c379a00000000000000000000000000000000000000000000000000000000081526004018080602001828103825260208152602001807f4f776e61626c653a2063616c6c6572206973206e6f7420746865206f776e657281525060200191505060405180910390fd5b600073ffffffffffffffffffffffffffffffffffffffff16600560009054906101000a900473ffffffffffffffffffffffffffffffffffffffff1673ffffffffffffffffffffffffffffffffffffffff167f8be0079c531659141344cd1fd0a4f28419497f9722a3daafe3b4186f6b6457e060405160405180910390a36000600560006101000a81548173ffffffffffffffffffffffffffffffffffffffff021916908373ffffffffffffffffffffffffffffffffffffffff160217905550565b60086020528060005260406000206000915090505481565b6000600560009054906101000a900473ffffffffffffffffffffffffffffffffffffffff16905090565b60066020528060005260406000206000915054906101000a900460ff1681565b60008411611e33576040517f08c379a00000000000000000000000000000000000000000000000000000000081526004018080602001828103825260118152602001807f5a45524f5f544f4b454e5f414d4f554e5400000000000000000000000000000081525060200191505060405180910390fd5b60008111611ea9576040517f08c379a00000000000000000000000000000000000000000000000000000000081526004018080602001828103825260158152602001807f5a45524f5f4f5054494d49535449435f5052494345000000000000000000000081525060200191505060405180910390fd5b600660008373ffffffffffffffffffffffffffffffffffffffff1673ffffffffffffffffffffffffffffffffffffffff16815260200190815260200160002060009054906101000a900460ff16611f68576040517f08c379a00000000000000000000000000000000000000000000000000000000081526004018080602001828103825260198152602001807f494e56414c49445f544f4b454e5f544f5f57495448445241570000000000000081525060200191505060405180910390fd5b6000801b600860003373ffffffffffffffffffffffffffffffffffffffff1673ffffffffffffffffffffffffffffffffffffffff168152602001908152602001600020541461201f576040517f08c379a000000000000000000000000000000000000000000000000000000000815260040180806020018281038252601b8152602001807f50454e44494e475f524551554553545f494e5f50524f4752455353000000000081525060200191505060405180910390fd5b6000600760008573ffffffffffffffffffffffffffffffffffffffff1673ffffffffffffffffffffffffffffffffffffffff16815260200190815260200160002060000160009054906101000a900473ffffffffffffffffffffffffffffffffffffffff169050600073ffffffffffffffffffffffffffffffffffffffff168173ffffffffffffffffffffffffffffffffffffffff161415612129576040517f08c379a00000000000000000000000000000000000000000000000000000000081526004018080602001828103825260108152602001807f4e4f5f44414f5f464f525f544f4b454e0000000000000000000000000000000081525060200191505060405180910390fd5b6000839050600061213b878587612913565b9050600081116121b3576040517f08c379a00000000000000000000000000000000000000000000000000000000081526004018080602001828103825260148152602001807f494e56414c49445f544f4b454e5f414d4f554e5400000000000000000000000081525060200191505060405180910390fd5b808273ffffffffffffffffffffffffffffffffffffffff166370a08231856040518263ffffffff1660e01b8152600401808273ffffffffffffffffffffffffffffffffffffffff1673ffffffffffffffffffffffffffffffffffffffff16815260200191505060206040518083038186803b15801561223157600080fd5b505afa158015612245573d6000803e3d6000fd5b505050506040513d602081101561225b57600080fd5b810190808051906020019092919050505010156122e0576040517f08c379a000000000000000000000000000000000000000000000000000000000815260040180806020018281038252601b8152602001807f494e53554646494349454e545f46554e44535f4f4e5f4147454e54000000000081525060200191505060405180910390fd5b6122e93a61330e565b476123286040518060400160405280600b81526020017f636f6d7075746174696f6e000000000000000000000000000000000000000000815250613612565b111561237f576040517f08c379a00000000000000000000000000000000000000000000000000000000081526004018080602001828103825260228152602001806155c06022913960400191505060405180910390fd5b60006124b76040518060400160405280600b81526020017f636f6d7075746174696f6e0000000000000000000000000000000000000000008152506040518060400160405280600b8054600181600116156101000203166002900480601f01602080910402602001604051908101604052809291908181526020018280546001816001161561010002031660029004801561245b5780601f106124305761010080835404028352916020019161245b565b820191906000526020600020905b81548152906001019060200180831161243e57829003601f168201915b505050505081526020016124ac6040518060400160405280600281526020017f30780000000000000000000000000000000000000000000000000000000000008152506124a78d6139a3565b613af2565b815250600c54613b36565b90506000801b811461272b5780600860003373ffffffffffffffffffffffffffffffffffffffff1673ffffffffffffffffffffffffffffffffffffffff168152602001908152602001600020819055506040518060c001604052808281526020013373ffffffffffffffffffffffffffffffffffffffff1681526020018981526020018873ffffffffffffffffffffffffffffffffffffffff1681526020018773ffffffffffffffffffffffffffffffffffffffff168152602001600d544301815250600960008381526020019081526020016000206000820151816000015560208201518160010160006101000a81548173ffffffffffffffffffffffffffffffffffffffff021916908373ffffffffffffffffffffffffffffffffffffffff1602179055506040820151816002015560608201518160030160006101000a81548173ffffffffffffffffffffffffffffffffffffffff021916908373ffffffffffffffffffffffffffffffffffffffff16021790555060808201518160040160006101000a81548173ffffffffffffffffffffffffffffffffffffffff021916908373ffffffffffffffffffffffffffffffffffffffff16021790555060a082015181600501559050507ffd89136dffafbaac50e67b1e6fcdeac776c4ec112780e17ef2a34e9d0c04bfa488883384604051808581526020018473ffffffffffffffffffffffffffffffffffffffff1673ffffffffffffffffffffffffffffffffffffffff1681526020018373ffffffffffffffffffffffffffffffffffffffff1673ffffffffffffffffffffffffffffffffffffffff16815260200182815260200194505050505060405180910390a15b5050505050505050565b600b8054600181600116156101000203166002900480601f0160208091040260200160405190810160405280929190818152602001828054600181600116156101000203166002900480156127cb5780601f106127a0576101008083540402835291602001916127cb565b820191906000526020600020905b8154815290600101906020018083116127ae57829003601f168201915b505050505081565b6127db612fd5565b73ffffffffffffffffffffffffffffffffffffffff166127f9611d73565b73ffffffffffffffffffffffffffffffffffffffff1614612882576040517f08c379a00000000000000000000000000000000000000000000000000000000081526004018080602001828103825260208152602001807f4f776e61626c653a2063616c6c6572206973206e6f7420746865206f776e657281525060200191505060405180910390fd5b60008090505b8151811015612909576000600660008484815181106128a357fe5b602002602001015173ffffffffffffffffffffffffffffffffffffffff1673ffffffffffffffffffffffffffffffffffffffff16815260200190815260200160002060006101000a81548160ff0219169083151502179055508080600101915050612888565b5050565b600c5481565b600080829050670de0b6b3a764000060068273ffffffffffffffffffffffffffffffffffffffff1663313ce5676040518163ffffffff1660e01b815260040160206040518083038186803b15801561296a57600080fd5b505afa15801561297e573d6000803e3d6000fd5b505050506040513d602081101561299457600080fd5b810190808051906020019092919050505003600a0a85870202816129b457fe5b049150509392505050565b600a5481565b6129cd612fd5565b73ffffffffffffffffffffffffffffffffffffffff166129eb611d73565b73ffffffffffffffffffffffffffffffffffffffff1614612a74576040517f08c379a00000000000000000000000000000000000000000000000000000000081526004018080602001828103825260208152602001807f4f776e61626c653a2063616c6c6572206973206e6f7420746865206f776e657281525060200191505060405180910390fd5b612a7d81613e4f565b50565b612a88612fd5565b73ffffffffffffffffffffffffffffffffffffffff16612aa6611d73565b73ffffffffffffffffffffffffffffffffffffffff1614612b2f576040517f08c379a00000000000000000000000000000000000000000000000000000000081526004018080602001828103825260208152602001807f4f776e61626c653a2063616c6c6572206973206e6f7420746865206f776e657281525060200191505060405180910390fd5b80600c8190555050565b612b41612fd5565b73ffffffffffffffffffffffffffffffffffffffff16612b5f611d73565b73ffffffffffffffffffffffffffffffffffffffff1614612be8576040517f08c379a00000000000000000000000000000000000000000000000000000000081526004018080602001828103825260208152602001807f4f776e61626c653a2063616c6c6572206973206e6f7420746865206f776e657281525060200191505060405180910390fd5b80600d8190555050565b612bfa612fd5565b73ffffffffffffffffffffffffffffffffffffffff16612c18611d73565b73ffffffffffffffffffffffffffffffffffffffff1614612ca1576040517f08c379a00000000000000000000000000000000000000000000000000000000081526004018080602001828103825260208152602001807f4f776e61626c653a2063616c6c6572206973206e6f7420746865206f776e657281525060200191505060405180910390fd5b60008090505b8151811015612d2857600160066000848481518110612cc257fe5b602002602001015173ffffffffffffffffffffffffffffffffffffffff1673ffffffffffffffffffffffffffffffffffffffff16815260200190815260200160002060006101000a81548160ff0219169083151502179055508080600101915050612ca7565b5050565b612d74600860003373ffffffffffffffffffffffffffffffffffffffff1673ffffffffffffffffffffffffffffffffffffffff16815260200190815260200160002054613e4f565b565b600d5481565b612d84612fd5565b73ffffffffffffffffffffffffffffffffffffffff16612da2611d73565b73ffffffffffffffffffffffffffffffffffffffff1614612e2b576040517f08c379a00000000000000000000000000000000000000000000000000000000081526004018080602001828103825260208152602001807f4f776e61626c653a2063616c6c6572206973206e6f7420746865206f776e657281525060200191505060405180910390fd5b600073ffffffffffffffffffffffffffffffffffffffff168173ffffffffffffffffffffffffffffffffffffffff161415612eb1576040517f08c379a000000000000000000000000000000000000000000000000000000000815260040180806020018281038252602681526020018061559a6026913960400191505060405180910390fd5b8073ffffffffffffffffffffffffffffffffffffffff16600560009054906101000a900473ffffffffffffffffffffffffffffffffffffffff1673ffffffffffffffffffffffffffffffffffffffff167f8be0079c531659141344cd1fd0a4f28419497f9722a3daafe3b4186f6b6457e060405160405180910390a380600560006101000a81548173ffffffffffffffffffffffffffffffffffffffff021916908373ffffffffffffffffffffffffffffffffffffffff16021790555050565b60076020528060005260406000206000915090508060000160009054906101000a900473ffffffffffffffffffffffffffffffffffffffff16908060010160009054906101000a900473ffffffffffffffffffffffffffffffffffffffff16905082565b600033905090565b60008073ffffffffffffffffffffffffffffffffffffffff16600160009054906101000a900473ffffffffffffffffffffffffffffffffffffffff1673ffffffffffffffffffffffffffffffffffffffff16148061306557506000613063600160009054906101000a900473ffffffffffffffffffffffffffffffffffffffff1661415e565b145b15613076576130746000614169565b505b600160009054906101000a900473ffffffffffffffffffffffffffffffffffffffff1673ffffffffffffffffffffffffffffffffffffffff166338cc48316040518163ffffffff1660e01b8152600401602060405180830381600087803b1580156130e057600080fd5b505af11580156130f4573d6000803e3d6000fd5b505050506040513d602081101561310a57600080fd5b810190808051906020019092919050505073ffffffffffffffffffffffffffffffffffffffff166000809054906101000a900473ffffffffffffffffffffffffffffffffffffffff1673ffffffffffffffffffffffffffffffffffffffff161461325357600160009054906101000a900473ffffffffffffffffffffffffffffffffffffffff1673ffffffffffffffffffffffffffffffffffffffff166338cc48316040518163ffffffff1660e01b8152600401602060405180830381600087803b1580156131d857600080fd5b505af11580156131ec573d6000803e3d6000fd5b505050506040513d602081101561320257600080fd5b81019080805190602001909291905050506000806101000a81548173ffffffffffffffffffffffffffffffffffffffff021916908373ffffffffffffffffffffffffffffffffffffffff1602179055505b6000809054906101000a900473ffffffffffffffffffffffffffffffffffffffff1673ffffffffffffffffffffffffffffffffffffffff1663c281d19e6040518163ffffffff1660e01b815260040160206040518083038186803b1580156132ba57600080fd5b505afa1580156132ce573d6000803e3d6000fd5b505050506040513d60208110156132e457600080fd5b8101908080519060200190929190505050905090565b600061330782600061417a565b9050919050565b600073ffffffffffffffffffffffffffffffffffffffff16600160009054906101000a900473ffffffffffffffffffffffffffffffffffffffff1673ffffffffffffffffffffffffffffffffffffffff16148061339557506000613393600160009054906101000a900473ffffffffffffffffffffffffffffffffffffffff1661415e565b145b156133a6576133a46000614169565b505b600160009054906101000a900473ffffffffffffffffffffffffffffffffffffffff1673ffffffffffffffffffffffffffffffffffffffff166338cc48316040518163ffffffff1660e01b8152600401602060405180830381600087803b15801561341057600080fd5b505af1158015613424573d6000803e3d6000fd5b505050506040513d602081101561343a57600080fd5b810190808051906020019092919050505073ffffffffffffffffffffffffffffffffffffffff166000809054906101000a900473ffffffffffffffffffffffffffffffffffffffff1673ffffffffffffffffffffffffffffffffffffffff161461358357600160009054906101000a900473ffffffffffffffffffffffffffffffffffffffff1673ffffffffffffffffffffffffffffffffffffffff166338cc48316040518163ffffffff1660e01b8152600401602060405180830381600087803b15801561350857600080fd5b505af115801561351c573d6000803e3d6000fd5b505050506040513d602081101561353257600080fd5b81019080805190602001909291905050506000806101000a81548173ffffffffffffffffffffffffffffffffffffffff021916908373ffffffffffffffffffffffffffffffffffffffff1602179055505b6000809054906101000a900473ffffffffffffffffffffffffffffffffffffffff1673ffffffffffffffffffffffffffffffffffffffff1663ca6ad1e4826040518263ffffffff1660e01b815260040180828152602001915050600060405180830381600087803b1580156135f757600080fd5b505af115801561360b573d6000803e3d6000fd5b5050505050565b60008073ffffffffffffffffffffffffffffffffffffffff16600160009054906101000a900473ffffffffffffffffffffffffffffffffffffffff1673ffffffffffffffffffffffffffffffffffffffff16148061369a57506000613698600160009054906101000a900473ffffffffffffffffffffffffffffffffffffffff1661415e565b145b156136ab576136a96000614169565b505b600160009054906101000a900473ffffffffffffffffffffffffffffffffffffffff1673ffffffffffffffffffffffffffffffffffffffff166338cc48316040518163ffffffff1660e01b8152600401602060405180830381600087803b15801561371557600080fd5b505af1158015613729573d6000803e3d6000fd5b505050506040513d602081101561373f57600080fd5b810190808051906020019092919050505073ffffffffffffffffffffffffffffffffffffffff166000809054906101000a900473ffffffffffffffffffffffffffffffffffffffff1673ffffffffffffffffffffffffffffffffffffffff161461388857600160009054906101000a900473ffffffffffffffffffffffffffffffffffffffff1673ffffffffffffffffffffffffffffffffffffffff166338cc48316040518163ffffffff1660e01b8152600401602060405180830381600087803b15801561380d57600080fd5b505af1158015613821573d6000803e3d6000fd5b505050506040513d602081101561383757600080fd5b81019080805190602001909291905050506000806101000a81548173ffffffffffffffffffffffffffffffffffffffff021916908373ffffffffffffffffffffffffffffffffffffffff1602179055505b6000809054906101000a900473ffffffffffffffffffffffffffffffffffffffff1673ffffffffffffffffffffffffffffffffffffffff1663524f3889836040518263ffffffff1660e01b81526004018080602001828103825283818151815260200191508051906020019080838360005b838110156139155780820151818401526020810190506138fa565b50505050905090810190601f1680156139425780820380516001836020036101000a031916815260200191505b5092505050602060405180830381600087803b15801561396157600080fd5b505af1158015613975573d6000803e3d6000fd5b505050506040513d602081101561398b57600080fd5b81019080805190602001909291905050509050919050565b60608060286040519080825280601f01601f1916602001820160405280156139da5781602001600182028038833980820191505090505b50905060008090505b6014811015613ae85760008160130360080260020a8573ffffffffffffffffffffffffffffffffffffffff1681613a1657fe5b0460f81b9050600060108260f81c60ff1681613a2e57fe5b0460f81b905060008160f81c6010028360f81c0360f81b9050613a508261428d565b858560020281518110613a5f57fe5b60200101907effffffffffffffffffffffffffffffffffffffffffffffffffffffffffffff1916908160001a905350613a978161428d565b856001866002020181518110613aa957fe5b60200101907effffffffffffffffffffffffffffffffffffffffffffffffffffffffffffff1916908160001a90535050505080806001019150506139e3565b5080915050919050565b6060613b2e83836040518060200160405280600081525060405180602001604052806000815250604051806020016040528060008152506142c1565b905092915050565b60008073ffffffffffffffffffffffffffffffffffffffff16600160009054906101000a900473ffffffffffffffffffffffffffffffffffffffff1673ffffffffffffffffffffffffffffffffffffffff161480613bbe57506000613bbc600160009054906101000a900473ffffffffffffffffffffffffffffffffffffffff1661415e565b145b15613bcf57613bcd6000614169565b505b600160009054906101000a900473ffffffffffffffffffffffffffffffffffffffff1673ffffffffffffffffffffffffffffffffffffffff166338cc48316040518163ffffffff1660e01b8152600401602060405180830381600087803b158015613c3957600080fd5b505af1158015613c4d573d6000803e3d6000fd5b505050506040513d6020811015613c6357600080fd5b810190808051906020019092919050505073ffffffffffffffffffffffffffffffffffffffff166000809054906101000a900473ffffffffffffffffffffffffffffffffffffffff1673ffffffffffffffffffffffffffffffffffffffff1614613dac57600160009054906101000a900473ffffffffffffffffffffffffffffffffffffffff1673ffffffffffffffffffffffffffffffffffffffff166338cc48316040518163ffffffff1660e01b8152600401602060405180830381600087803b158015613d3157600080fd5b505af1158015613d45573d6000803e3d6000fd5b505050506040513d6020811015613d5b57600080fd5b81019080805190602001909291905050506000806101000a81548173ffffffffffffffffffffffffffffffffffffffff021916908373ffffffffffffffffffffffffffffffffffffffff1602179055505b60606002604051908082528060200260200182016040528015613de357816020015b6060815260200190600190039081613dce5790505b50905083600060028110613df357fe5b602002015181600081518110613e0557fe5b602002602001018190525083600160028110613e1d57fe5b602002015181600181518110613e2f57fe5b6020026020010181905250613e45858285614583565b9150509392505050565b600073ffffffffffffffffffffffffffffffffffffffff166009600083815260200190815260200160002060010160009054906101000a900473ffffffffffffffffffffffffffffffffffffffff1673ffffffffffffffffffffffffffffffffffffffff161415613f28576040517f08c379a00000000000000000000000000000000000000000000000000000000081526004018080602001828103825260128152602001807f524551554553545f4e4f545f455849535453000000000000000000000000000081525060200191505060405180910390fd5b613f306154df565b600960008381526020019081526020016000206040518060c0016040529081600082015481526020016001820160009054906101000a900473ffffffffffffffffffffffffffffffffffffffff1673ffffffffffffffffffffffffffffffffffffffff1673ffffffffffffffffffffffffffffffffffffffff168152602001600282015481526020016003820160009054906101000a900473ffffffffffffffffffffffffffffffffffffffff1673ffffffffffffffffffffffffffffffffffffffff1673ffffffffffffffffffffffffffffffffffffffff1681526020016004820160009054906101000a900473ffffffffffffffffffffffffffffffffffffffff1673ffffffffffffffffffffffffffffffffffffffff1673ffffffffffffffffffffffffffffffffffffffff168152602001600582015481525050905060086000826020015173ffffffffffffffffffffffffffffffffffffffff1673ffffffffffffffffffffffffffffffffffffffff16815260200190815260200160002060009055600960008381526020019081526020016000206000808201600090556001820160006101000a81549073ffffffffffffffffffffffffffffffffffffffff021916905560028201600090556003820160006101000a81549073ffffffffffffffffffffffffffffffffffffffff02191690556004820160006101000a81549073ffffffffffffffffffffffffffffffffffffffff0219169055600582016000905550505050565b6000813b9050919050565b6000614173614ae5565b9050919050565b600060608390506000809050600080905060008090505b835181101561426e5760308482815181106141a857fe5b602001015160f81c60f81b60f81c60ff16101580156141e4575060398482815181106141d057fe5b602001015160f81c60f81b60f81c60ff1611155b156142365781156142075760008614156141fd5761426e565b8580600190039650505b600a83029250603084828151811061421b57fe5b602001015160f81c60f81b60f81c60ff160383019250614261565b602e84828151811061424457fe5b602001015160f81c60f81b60f81c60ff16141561426057600191505b5b8080600101915050614191565b5060008511156142815784600a0a820291505b81935050505092915050565b6000600a8260f81c60ff1610156142af5760308260f81c0160f81b90506142bc565b60578260f81c0160f81b90505b919050565b6060808690506060869050606086905060608690506060869050606081518351855187518951010101016040519080825280601f01601f19166020018201604052801561431d5781602001600182028038833980820191505090505b509050606081905060008090506000809050600090505b88518110156143a25788818151811061434957fe5b602001015160f81c60f81b83838060010194508151811061436657fe5b60200101907effffffffffffffffffffffffffffffffffffffffffffffffffffffffffffff1916908160001a9053508080600101915050614334565b600090505b8751811015614415578781815181106143bc57fe5b602001015160f81c60f81b8383806001019450815181106143d957fe5b60200101907effffffffffffffffffffffffffffffffffffffffffffffffffffffffffffff1916908160001a90535080806001019150506143a7565b600090505b86518110156144885786818151811061442f57fe5b602001015160f81c60f81b83838060010194508151811061444c57fe5b60200101907effffffffffffffffffffffffffffffffffffffffffffffffffffffffffffff1916908160001a905350808060010191505061441a565b600090505b85518110156144fb578581815181106144a257fe5b602001015160f81c60f81b8383806001019450815181106144bf57fe5b60200101907effffffffffffffffffffffffffffffffffffffffffffffffffffffffffffff1916908160001a905350808060010191505061448d565b600090505b845181101561456e5784818151811061451557fe5b602001015160f81c60f81b83838060010194508151811061453257fe5b60200101907effffffffffffffffffffffffffffffffffffffffffffffffffffffffffffff1916908160001a9053508080600101915050614500565b82995050505050505050505095945050505050565b60008073ffffffffffffffffffffffffffffffffffffffff16600160009054906101000a900473ffffffffffffffffffffffffffffffffffffffff1673ffffffffffffffffffffffffffffffffffffffff16148061460b57506000614609600160009054906101000a900473ffffffffffffffffffffffffffffffffffffffff1661415e565b145b1561461c5761461a6000614169565b505b600160009054906101000a900473ffffffffffffffffffffffffffffffffffffffff1673ffffffffffffffffffffffffffffffffffffffff166338cc48316040518163ffffffff1660e01b8152600401602060405180830381600087803b15801561468657600080fd5b505af115801561469a573d6000803e3d6000fd5b505050506040513d60208110156146b057600080fd5b810190808051906020019092919050505073ffffffffffffffffffffffffffffffffffffffff166000809054906101000a900473ffffffffffffffffffffffffffffffffffffffff1673ffffffffffffffffffffffffffffffffffffffff16146147f957600160009054906101000a900473ffffffffffffffffffffffffffffffffffffffff1673ffffffffffffffffffffffffffffffffffffffff166338cc48316040518163ffffffff1660e01b8152600401602060405180830381600087803b15801561477e57600080fd5b505af1158015614792573d6000803e3d6000fd5b505050506040513d60208110156147a857600080fd5b81019080805190602001909291905050506000806101000a81548173ffffffffffffffffffffffffffffffffffffffff021916908373ffffffffffffffffffffffffffffffffffffffff1602179055505b60008060009054906101000a900473ffffffffffffffffffffffffffffffffffffffff1673ffffffffffffffffffffffffffffffffffffffff16632ef3accc86856040518363ffffffff1660e01b81526004018080602001838152602001828103825284818151815260200191508051906020019080838360005b8381101561488f578082015181840152602081019050614874565b50505050905090810190601f1680156148bc5780820380516001836020036101000a031916815260200191505b509350505050602060405180830381600087803b1580156148dc57600080fd5b505af11580156148f0573d6000803e3d6000fd5b505050506040513d602081101561490657600080fd5b81019080805190602001909291905050509050823a02670de0b6b3a764000001811115614939576000801b915050614ade565b60606149448561503c565b90506000809054906101000a900473ffffffffffffffffffffffffffffffffffffffff1673ffffffffffffffffffffffffffffffffffffffff1663c55c1cb68360008985896040518663ffffffff1660e01b8152600401808581526020018060200180602001848152602001838103835286818151815260200191508051906020019080838360005b838110156149e85780820151818401526020810190506149cd565b50505050905090810190601f168015614a155780820380516001836020036101000a031916815260200191505b50838103825285818151815260200191508051906020019080838360005b83811015614a4e578082015181840152602081019050614a33565b50505050905090810190601f168015614a7b5780820380516001836020036101000a031916815260200191505b5096505050505050506020604051808303818588803b158015614a9d57600080fd5b505af1158015614ab1573d6000803e3d6000fd5b50505050506040513d6020811015614ac857600080fd5b8101908080519060200190929190505050925050505b9392505050565b600080614b05731d3b2638a7cc9f2cb3d298a3da7a90b67e5506ed61415e565b1115614ba757731d3b2638a7cc9f2cb3d298a3da7a90b67e5506ed600160006101000a81548173ffffffffffffffffffffffffffffffffffffffff021916908373ffffffffffffffffffffffffffffffffffffffff160217905550614b9e6040518060400160405280600b81526020017f6574685f6d61696e6e65740000000000000000000000000000000000000000008152506150bc565b60019050615039565b6000614bc673c03a2615d5efaf5f49f60b7bb6583eaec212fdf161415e565b1115614c685773c03a2615d5efaf5f49f60b7bb6583eaec212fdf1600160006101000a81548173ffffffffffffffffffffffffffffffffffffffff021916908373ffffffffffffffffffffffffffffffffffffffff160217905550614c5f6040518060400160405280600c81526020017f6574685f726f707374656e3300000000000000000000000000000000000000008152506150bc565b60019050615039565b6000614c8773b7a07bcf2ba2f2703b24c0691b5278999c59ac7e61415e565b1115614d295773b7a07bcf2ba2f2703b24c0691b5278999c59ac7e600160006101000a81548173ffffffffffffffffffffffffffffffffffffffff021916908373ffffffffffffffffffffffffffffffffffffffff160217905550614d206040518060400160405280600981526020017f6574685f6b6f76616e00000000000000000000000000000000000000000000008152506150bc565b60019050615039565b6000614d4873146500cfd35b22e4a392fe0adc06de1a1368ed4861415e565b1115614dea5773146500cfd35b22e4a392fe0adc06de1a1368ed48600160006101000a81548173ffffffffffffffffffffffffffffffffffffffff021916908373ffffffffffffffffffffffffffffffffffffffff160217905550614de16040518060400160405280600b81526020017f6574685f72696e6b6562790000000000000000000000000000000000000000008152506150bc565b60019050615039565b6000614e0973a2998efd205fb9d4b4963afb70778d6354ad3a4161415e565b1115614eab5773a2998efd205fb9d4b4963afb70778d6354ad3a41600160006101000a81548173ffffffffffffffffffffffffffffffffffffffff021916908373ffffffffffffffffffffffffffffffffffffffff160217905550614ea26040518060400160405280600a81526020017f6574685f676f65726c69000000000000000000000000000000000000000000008152506150bc565b60019050615039565b6000614eca736f485c8bf6fc43ea212e93bbf8ce046c7f1cb47561415e565b1115614f2e57736f485c8bf6fc43ea212e93bbf8ce046c7f1cb475600160006101000a81548173ffffffffffffffffffffffffffffffffffffffff021916908373ffffffffffffffffffffffffffffffffffffffff16021790555060019050615039565b6000614f4d7320e12a1f859b3feae5fb2a0a32c18f5a65555bbf61415e565b1115614fb1577320e12a1f859b3feae5fb2a0a32c18f5a65555bbf600160006101000a81548173ffffffffffffffffffffffffffffffffffffffff021916908373ffffffffffffffffffffffffffffffffffffffff16021790555060019050615039565b6000614fd07351efaf4c8b3c9afbd5ab9f4bbc82784ab6ef8faa61415e565b1115615034577351efaf4c8b3c9afbd5ab9f4bbc82784ab6ef8faa600160006101000a81548173ffffffffffffffffffffffffffffffffffffffff021916908373ffffffffffffffffffffffffffffffffffffffff16021790555060019050615039565b600090505b90565b60606150466150d6565b61504e61555a565b61505a816104006150e2565b6150638161512c565b60008090505b83518110156150a55761509884828151811061508157fe5b60200260200101518361513a90919063ffffffff16565b8080600101915050615069565b506150af8161515f565b8060000151915050919050565b80600290805190602001906150d292919061545f565b5050565b60405180590338823950565b60008190506000602082816150f357fe5b061461510c576020818161510357fe5b06602003810190505b808360200181815250506040518084526000815281810160405250505050565b61513781600461516d565b50565b615147826003835161518e565b61515a81836152ce90919063ffffffff16565b505050565b61516a81600761516d565b50565b61518a601f60058360ff16901b178361537990919063ffffffff16565b5050565b601781116151ba576151b58160058460ff16901b60ff16178461537990919063ffffffff16565b6152c9565b60ff81116151fb576151df601860058460ff16901b178461537990919063ffffffff16565b6151f5816001856153b99092919063ffffffff16565b506152c8565b61ffff811161523d57615221601960058460ff16901b178461537990919063ffffffff16565b615237816002856153b99092919063ffffffff16565b506152c7565b63ffffffff811161528157615265601a60058460ff16901b178461537990919063ffffffff16565b61527b816004856153b99092919063ffffffff16565b506152c6565b67ffffffffffffffff81116152c5576152ad601b60058460ff16901b178461537990919063ffffffff16565b6152c3816008856153b99092919063ffffffff16565b505b5b5b5b5b505050565b6152d661555a565b82602001518360000151518351011115615306576153058360026152ff86602001518651615420565b0261543c565b5b60008060008451905085518051602081830101945086518101825260208701935050505b6020811061534d578151835260208301925060208201915060208103905061532a565b60006001826020036101000a039050801983511681855116818117865250508694505050505092915050565b8160200151600183600001515101111561539f5761539e82600284602001510261543c565b5b815180516020818301018381536001820183525050505050565b6153c161555a565b8360200151846000015151830111156153ef576153ee8460026153e8876020015186615420565b0261543c565b5b60006001836101000a0390508451805184818301018684198251161781528582018352505050849150509392505050565b60008183111561543257829050615436565b8190505b92915050565b60608260000151905061544f83836150e2565b61545983826152ce565b50505050565b828054600181600116156101000203166002900490600052602060002090601f016020900481019282601f106154a057805160ff19168380011785556154ce565b828001600101855582156154ce579182015b828111156154cd5782518255916020019190600101906154b2565b5b5090506154db9190615574565b5090565b6040518060c0016040528060008019168152602001600073ffffffffffffffffffffffffffffffffffffffff16815260200160008152602001600073ffffffffffffffffffffffffffffffffffffffff168152602001600073ffffffffffffffffffffffffffffffffffffffff168152602001600081525090565b604051806040016040528060608152602001600081525090565b61559691905b8082111561559257600081600090555060010161557a565b5090565b9056fe4f776e61626c653a206e6577206f776e657220697320746865207a65726f2061646472657373494e53554646494349454e545f46554e44535f464f525f4f5241434c455f43414c4c4e4f545f454e4f5547485f544f4b454e535f544f5f4255524e5f4f4e5f42414c414e4345a265627a7a7231582025ddb380f9013b03fc90698ce1e7adf267ed41bd649aa6d8d7eeef5159744e0b64736f6c63430005110032516d5a4b715050594e704b784267615642644d6545414c363777537878723661446e4c657167744570564d484441",
  "source": "pragma solidity 0.5.17;\n\nimport \"./provableAPI.sol\";\nimport \"./IERC20.sol\";\nimport \"./Ownable.sol\";\nimport \"./IAgent.sol\";\nimport \"./ITokens.sol\";\n\n// This contract provides Withdraw function for Berezka DAO\n// Basic flow is:\n//  1. User creates a withdraw request, specifying what token he wants to exchange to stable conin\n//  2. Oracle request is sent for an actual current token price\n//  3. Oracle calls back with reliable price. Then an exchange is happening\n//  4. In an event of Oracle failing, cancel function can be called by Owner to cancel request\n//\ncontract BerezkaWithdraw is usingProvable, Ownable {\n    \n    // Information about withdrawal request\n    //\n    struct WithdrawRequest {\n        bytes32 requestId; // Identifier (also an Oracle Service Query ID)\n        address sender; // Who is withdrawing tokens\n        uint256 amount; // What amount of tokens\n        address token; // What exact token\n        address targetToken; // What token he want to receive\n        uint256 lastValidBlock; // Last block when this request is valid\n    }\n    \n    // Information about DAO\n    struct Dao {\n        address agent; // Address of Aragon DAO Agent App\n        address tokens; // Address of Aragon DAO Tokens App\n    }\n    \n    // Token whitelist to withdraw\n    //\n    mapping(address => bool) public whitelist;\n\n    // Each token have an agent to withdraw tokens from\n    //\n    mapping(address => Dao) public daoConfig;\n\n    // Each user (address) can have at most one pending withdraw query\n    //\n    mapping(address => bytes32) public pendingQueries;\n\n    // Remember withdraw requests\n    //\n    mapping(bytes32 => WithdrawRequest) public pendingRequests;\n\n    uint256 public lastExchangePrice;\n    \n    // Address (IPFS Hash) of Oracle Script\n    //\n    string public oracleAddress = \"QmZKqPPYNpKxBgaVBdMeEAL67wSxxr6aDnLeqgtEpVMHDA\";\n    \n    // Gas required to call callback method\n    //\n    uint256 public oracleCallbackGas = 300000;\n    \n    // How many blocks requests are valid to receive callbacks?\n    // By default use 1 hour (360 blocks)\n    //\n    uint256 public requestValidityDurationBlocks = 360;\n    \n    // Event used to log a creation of withdraw request\n    //\n    event WithdrawRequestCreated(\n        uint256 _amountToWithdraw,\n        address _tokenToWithraw,\n        address _withdrawTo,\n        bytes32 _queryId\n    );\n\n    // Event used to log a success completion of withdraw request\n    //\n    event WithdrawRequestSucceeded(\n        uint256 _finalPrice,\n        bytes32 _queryId\n    );\n    \n    // Event used to log a failure to complete a withdraw request\n    //\n    event WithdrawRequestFailed(\n        bytes32 _queryId\n    );\n\n    // Creates new instance\n    //\n    constructor() public {}\n\n    // Main function. Allows user (msg.sender) to withdraw funds from DAO.\n    // _amount - amount of DAO tokens to exhange\n    // _token - token of DAO to exchange\n    // _targetToken - token to receive in exchange\n    // _optimisticPrice - an optimistic price of DAO token. Used to check if DAO Agent \n    //                    have enough funds on it's balance. Is not used to calculare\n    //                    use returns\n    function withdraw(\n        uint256 _amount,\n        address _token,\n        address _targetToken,\n        uint256 _optimisticPrice\n    ) \n        public\n        payable \n    {\n        // Require that amount is positive\n        //\n        require(_amount > 0, \n            \"ZERO_TOKEN_AMOUNT\"\n        );\n        // Require that an optimistic price is set\n        //\n        require(_optimisticPrice > 0, \n            \"ZERO_OPTIMISTIC_PRICE\"\n        );\n        \n        // Check that token to withdraw is whitelisted\n        //\n        require(whitelist[_targetToken],\n            \"INVALID_TOKEN_TO_WITHDRAW\"\n        );\n    \n        // Require no pending queries for this address\n        //\n        require(pendingQueries[msg.sender] == 0,\n            \"PENDING_REQUEST_IN_PROGRESS\"\n        );\n        \n        // Require that there is an agent (vault) address for  a given token\n        //\n        address agent = daoConfig[_token].agent;\n        require(agent != address(0), \n            \"NO_DAO_FOR_TOKEN\"\n        );\n        \n        // Require that an agent have funds to fullfill request (optimisitcally)\n        // And that this contract can withdraw neccesary amount of funds from agent\n        //\n        IERC20 targetToken = IERC20(_targetToken);\n        uint256 optimisticAmount = computeExchange(_amount, _optimisticPrice, _targetToken);\n        require(optimisticAmount > 0, \n            \"INVALID_TOKEN_AMOUNT\"\n        );\n        require(targetToken.balanceOf(agent) >= optimisticAmount, \n            \"INSUFFICIENT_FUNDS_ON_AGENT\"\n        );\n        \n        // Set gas price for provable equal gas price of current transaction\n        //\n        provable_setCustomGasPrice(tx.gasprice);\n        \n        // Check funds for oracle call\n        //\n        require(provable_getPrice(\"computation\") <= address(this).balance, \n            \"INSUFFICIENT_FUNDS_FOR_ORACLE_CALL\"\n        );\n        \n        // Send oracle query for price verification. Transfer from agent to sender \n        // will happen in oracle callback\n        //\n        bytes32 queryId =\n            provable_query(\n                \"computation\",\n                [\n                    oracleAddress,\n                    strConcat(\"0x\", _toAsciiString(_token))\n                ],\n                oracleCallbackGas\n            );\n        \n        // queryId can be 0 as indication that something goes wrong on Oracle Side\n        //\n        if (queryId != 0) {\n            // Add pending query for account\n            //\n            pendingQueries[msg.sender] = queryId;\n            \n            // Add pending request for processing\n            //\n            pendingRequests[queryId] = WithdrawRequest(\n                queryId,\n                msg.sender,\n                _amount,\n                _token,\n                _targetToken,\n                block.number + requestValidityDurationBlocks\n            );\n    \n            emit WithdrawRequestCreated(_amount, _token, msg.sender, queryId);\n        }\n    }\n\n    // Oracle callback function. Oracle will supply us with reliable price, so \n    // actual exchange action happens here\n    // _queryID - withdraw request ID\n    // _result - encoded as string reliable price\n    //\n    function __callback(\n        bytes32 _queryID,\n        string memory _result\n    ) public {\n        // Check that sender of transaction is indeed oracle service\n        //\n        require(msg.sender == provable_cbAddress(),\n            \"INVALID_CALLBACK_SENDER\"\n        );\n        \n        // Extract price from oracle response\n        //\n        lastExchangePrice = parseInt(_result);\n        WithdrawRequest memory request = pendingRequests[_queryID];\n        require(request.requestId == _queryID, \n            \"REQUEST_IS_CANCELLED\"\n        );\n        \n        // Check that request is not expired\n        //\n        require(request.lastValidBlock >= block.number, \n            \"REQUEST_IS_EXPIRED\"\n        );\n        \n        // Positive scenario - we've got a valid price from oracle\n        //\n        if (lastExchangePrice > 0) {\n            uint256 finalAmount = computeExchange(request.amount, lastExchangePrice, request.targetToken);\n            // Transfer target token from agent to owner\n            //\n            IAgent agent = IAgent(daoConfig[request.token].agent);\n            agent.transfer(request.targetToken, request.sender, finalAmount);\n            \n            // Burn tokens\n            //\n            IERC20 token = IERC20(request.token);\n            require(token.balanceOf(request.sender) >= request.amount, \n                \"NOT_ENOUGH_TOKENS_TO_BURN_ON_BALANCE\"\n            );\n            ITokens tokens = ITokens(daoConfig[request.token].tokens); // TODO ???\n            tokens.burn(request.sender, request.amount);\n            \n            // Emit event that everything is fine\n            //\n            emit WithdrawRequestSucceeded(lastExchangePrice, _queryID);\n        } else {\n            // Emit event that something has failed\n            //\n            emit WithdrawRequestFailed(_queryID);\n        }\n        \n        // Clean up\n        //\n        delete pendingQueries[request.sender];\n        delete pendingRequests[_queryID];\n    }\n    \n    // Computes an amount of _targetToken that user will get in exchange for\n    // a given amount for DAO tokens\n    // _amount - amount of DAO tokens\n    // _price - price in 6 decimals per 10e18 of DAO token\n    // _targetToken - target token to receive\n    //\n    function computeExchange(\n        uint256 _amount,\n        uint256 _price,\n        address _targetToken\n    )\n        public \n        view \n        returns (uint256)\n    {\n        IERC20 targetToken = IERC20(_targetToken);\n        return _amount * _price * 10 ** (targetToken.decimals() - 6) / 10**18;\n    }\n    \n    // Cancels a current pending request withdraw query (in an event of Oracle failing to answer)\n    // Can be performed by sender address\n    // _queryId - ID of request to cancel\n    //\n    function cancel() \n        public \n    {\n        \n        _cancel(pendingQueries[msg.sender]);\n    }\n    \n    // --- Administrative functions --- \n    \n    // Adds new DAO to contract.\n    // _token - DAO token\n    // _tokens - corresponding Tokens service in Aragon, that manages _token\n    // _agent - agent contract in Aragon (fund holder)\n    //\n    function addDao(\n        address _token,\n        address _tokens,\n        address _agent\n    )\n        public \n        onlyOwner \n    {\n        require(_token != address(0), \n            \"INVALID_TOKEN_ADDRESS\"\n        );\n        require(_agent != address(0), \n            \"INVALID_TOKEN_ADDRESS\"\n        );\n        require(_tokens != address(0),\n            \"INVALID_TOKENS_ADDRESS\"\n        );\n        \n        daoConfig[_token] = Dao(_agent, _tokens);\n    }\n    \n    // Removes DAO from contract\n    // _token - token to remove\n    //\n    function deleteDao(\n        address _token\n    ) \n        public \n        onlyOwner \n    {\n        require(_token != address(0), \n            \"INVALID_TOKEN_ADDRESS\"\n        );\n        delete daoConfig[_token];\n    }\n    \n    // Sets an address (IPFS Hash) of Oracle Script\n    // _oracleAddres - IPFS Hash of Oracle Script\n    //\n    function setOracleAddress(\n        string memory _oracleAddres    \n    ) \n        public \n        onlyOwner \n    {\n        oracleAddress = _oracleAddres;\n    }\n    \n    // Sets amount of Gas used to call __callback function\n    // _oracleCallbackGas - amount of gas\n    //\n    function setOracleGas(\n        uint256 _oracleCallbackGas\n    ) \n        public \n        onlyOwner \n    {\n        oracleCallbackGas = _oracleCallbackGas;\n    }\n    \n    // Sets duration (in blocks) for how long withdrawal request is still valid\n    // _duration - duration in blocks\n    //\n    function setRequestDuration(\n        uint256 _duration    \n    ) \n        public\n        onlyOwner\n    {\n        requestValidityDurationBlocks = _duration;\n    }\n    \n    // Adds possible tokens (stableconins) to withdraw to\n    // _whitelisted - list of stableconins to withdraw to\n    //\n    function addWhitelistTokens(\n        address[] memory _whitelisted\n    ) \n        public \n        onlyOwner \n    {\n        for (uint256 i = 0; i < _whitelisted.length; i++) {\n            whitelist[_whitelisted[i]] = true;\n        }\n    }\n    \n    // Removes possible tokens (stableconins) to withdraw to\n    // _whitelisted - list of stableconins to withdraw to\n    //\n    function removeWhitelistTokens(\n        address[] memory _whitelisted\n    ) \n        public \n        onlyOwner \n    {\n        for (uint256 i = 0; i < _whitelisted.length; i++) {\n            whitelist[_whitelisted[i]] = false;\n        }\n    }\n    \n    // Cancels a pending withdraw query (in an event of Oracle failing to answer)\n    // _queryId - ID of request to cancel\n    //\n    function cancel(\n        bytes32 _queryId\n    ) \n        public \n        onlyOwner \n    {\n        _cancel(_queryId);\n    }\n    \n    // --- Internal functions --- \n    \n    // Cancels a pending withdraw query (in an event of Oracle failing to answer)\n    // _queryId - ID of request to cancel\n    //\n    function _cancel(\n        bytes32 _queryId\n    ) \n        internal \n    {\n        require(pendingRequests[_queryId].sender != address(0), \n            \"REQUEST_NOT_EXISTS\"\n        );\n        \n        WithdrawRequest memory request = pendingRequests[_queryId];\n        delete pendingQueries[request.sender];\n        delete pendingRequests[_queryId];\n    }\n\n    // Converts address to string (for Oracle Service call)\n    // _x - address to convert\n    //\n    function _toAsciiString(\n        address _x\n    )\n        internal \n        pure \n        returns (string memory)\n    {\n        bytes memory s = new bytes(40);\n        for (uint256 i = 0; i < 20; i++) {\n            bytes1 b = bytes1(uint8(uint256(uint160(_x)) / (2**(8 * (19 - i)))));\n            bytes1 hi = bytes1(uint8(b) / 16);\n            bytes1 lo = bytes1(uint8(b) - 16 * uint8(hi));\n            s[2 * i] = _char(hi);\n            s[2 * i + 1] = _char(lo);\n        }\n        return string(s);\n    }\n\n    // Converts byte to char (for string conversion for Oracle Service call)\n    // _b - byte to convert to char\n    //\n    function _char(\n        bytes1 _b\n    ) \n        internal \n        pure \n        returns (bytes1 c) \n    {\n        if (uint8(_b) < 10) return bytes1(uint8(_b) + 0x30);\n        else return bytes1(uint8(_b) + 0x57);\n    }\n}\n",
  "sourcePath": "/Users/dvasin/dev/Withdraw-Contract/contracts/BerezkaWithdraw.sol",
  "compiler": {
    "name": "solc",
    "version": "0.5.17+commit.d19bba13.Emscripten.clang"
  },
  "schemaVersion": "3.2.2",
  "updatedAt": "2021-03-10T03:50:00.161Z",
  "devdoc": {
    "methods": {
      "owner()": {
        "details": "Returns the address of the current owner."
      },
      "renounceOwnership()": {
        "details": "Leaves the contract without owner. It will not be possible to call `onlyOwner` functions anymore. Can only be called by the current owner.     * NOTE: Renouncing ownership will leave the contract without an owner, thereby removing any functionality that is only available to the owner."
      },
      "transferOwnership(address)": {
        "details": "Transfers ownership of the contract to a new account (`newOwner`). Can only be called by the current owner."
      }
    }
  },
  "userdoc": {
    "methods": {}
  }
}